:20000000142F8301522C432C012C002C092C3D2C002C882C132C0B2C002F910119130113DE
:2000200009130A130C130D130E130513082F92010313012F820B022F9B0B1A1310131A2F02
:200040008201012F980B8C0B910B09130A130D13022FBB01022FC300820F6700072FD01AC5
:20006000820B692F880B5130112F870B1D2F4F300415D018C427102F50300B2F870B1D2FE7
:200080004F30182FD01A012F4F300326840F860B012F5030142F8711122888110929000024
:2000A000820B002F8D1155309001910F6700C02F8B0B802F7830812F8B0B012F7830812F1F
:2000C0008B0B802F7830112F8B0B012F7830112F8B0B102F7830502F8B0B402F7830502F1D
:2000E0008B0B102F7830C02F8B0BFD2F980B402F890B2B2F7000910B002F8D1180309001B8
:200100002C30202F1A08042F1808382F03227B308930002F8D118D3090014A3190119130D7
:200120001A123D2F8730402F95308630422F9530442F9530462F9530980F910B06008C0BFE
:2001400007008D0B002A890F8A0B8B0F9101A830820F6700072FD01A820B692F880BCD30D8
:20016000112F870B1D2FCB300415D018C427102FCC300B2F870B1D2FCB30182FD01A012FCB
:20018000CB300326840F860B012FCC30142F87111228881109290000820B8C0F6700002F4D
:2001A0003B31D23043311531D53000004431890FD930DA301131890FDD30DE300E31890F26
:2001C000E130E230D430890FE530E630D130890FE930EA300531890FED30EE300231890F95
:2001E0000000F230FE30890FF530F6303F31890F0000FA303E31890FFD303D314031890FEF
:2002000000003C314131890F3B31000042310000890F90013D31890F90013C310F311031DA
:2002200045311231133100004631032F63001631980F67008A0F901F90012C308A0FD01FA3
:2002400090012C308A0F101E90012C308A0FD01F90012C308A0F101E90012C308A0F101F0C
:2002600090012C308A0F901F90012C308A0F101F90012C3090019001900190019001900141
:2002800090019001900190019001900190018A0F90012C30062F8F0B012F980B8C0B102F69
:2002A000800B09130A130D13820F6700072FD01A820B692F880B7931112F870B1D2F77311A
:2002C0000415D018C427102F78310B2F870B1D2F7731182FD01A012F77310326840F860B34
:2002E000012F7831142F87111228881109290000820B8C0F6700002FE7317E31EF31C131AE
:2003000081310000F031890F85318631BD31890F89318A31BA31890F8D318E318031890FC1
:20032000913192317D31890F95319631B131890F99319A31AE31890F00009E31AA31890F9D
:20034000A131A231EB31890F0000A631EA31890FA931E931EC31890F0000E831ED31890F42
:20036000E7310000EE310000890F9001E931890F9001E831BB31BC31F131BE31BF310000E7
:20038000F231032F6300C231980F67008A0F901F900100338A0FD01F900100338A0F101E85
:2003A000900100338A0FD01F900100338A0F101E900100338A0F101F900100338A0F901FCE
:2003C000900100338A0F101F90010033900190019001900190019001900190019001900123
:0C03E0009001900190018A0F9001003301
:20040000050005000500050005000500050005000500050005000500050009000900090080
:2004200009000D000D00110011001500150019001D0021002100250029002D0031003900F0
:200440003D00010105010D0111011901210125012D0135013D0105020D02150221022902B8
:2004600031023D02050311031903250331033D030904150421042D043904050511051D053B
:200480002D05390505061506210631063D060D0719072907350705081508210831083D08B4
:2004A0000D091D0929093909050A150A210A310A3D0A0D0B190B290B350B010C0D0C190CB6
:2004C000290C350C010D0D0D150D210D2D0D350D010E090E150E1D0E250E2D0E350E3D0E42
:2004E000050F0D0F110F190F1D0F250F290F2D0F310F350F350F390F3D0F3D0F3D0F3D0F70
:200500003D0F3D0F3D0F3D0F3D0F390F350F350F310F2D0F290F250F1D0F190F110F0D0F17
:20052000050F3D0E350E2D0E250E1D0E150E090E010E350D2D0D210D150D0D0D010D350C02
:20054000290C190C0D0C010C350B290B190B0D0B3D0A310A210A150A050A390929091D09F6
:200560000D093D0831082108150805083507290719070D073D0631062106150605063905EF
:200580002D051D051105050539042D042104150409043D03310325031903110305033D021B
:2005A00031022902210215020D0205023D0135012D0125012101190111010D010501010161
:2005C0003D00390031002D0029002500210021001D00190015001500110011000D000D001B
:2005E00009000900090009000500050005000500050005000500050005000500050005009B
:20060000820F6700072FD01A820B692F880B2533112F870B1D2F23330415D018C427102F13
:2006200024330B2F870B1D2F2333182FD01A012F23330326840F860B012F2433142F87118F
:200640001228881109290000820B002F8D1129339001980F6700802F890B910F4B33012FAF
:20066000890B920F4B33802F890B930F4B33012F890B940F4B33102F890B950F4B33402F1B
:20068000890B960F4B33102F890B970F4B33402F890B900F4B338C0BF02C0C0B8E0B002FFA
:2006A0008D11533390015433820F6700072FD01A820B692F880B7933112F870B1D2F7733BA
:2006C0000415D018C427102F78330B2F870B1D2F7733182FD01A012F77330326840F860B2A
:2006E000012F7833142F87111228881109290000820B002F8D117D3390018F118E330E171E
:20070000890F8A0B102F85118633800BC52585250000002F8D118D3390019F3383119B33AD
:200720000513860F80030012C0247000002F8D119A339001543303139D3300009633820F31
:200740006700072FD01A820B692F880BC433112F870B1D2FC2330415D018C427102FC3332F
:200760000B2F870B1D2FC233182FD01A012FC2330326840F860B012FC333142F871112288E
:20078000881109290000820B002F8D11C8339001062F8F0B8E0F6E008D0B8C158C150C12D6
:2007A000042F180C1F2C6700980BC02F91015431980BC02F91015431980B812F9101543174
:2007C000980B812F91015431980B112F91015431980B112F91015431980B502F9101543182
:0807E000980B502F91015431D8
:00000001FF
