:20000000142F8301522C432C012C002C092C3D2C002C882C132C0B2CC02F950B980B812FFD
:200020009B0B9E0B112FA10BA40B502FA70BAA0B402F960B802F990B012F9C0B802F9F0B5D
:20004000012FA20B102FA50B402FA80B102FAB0B172F820B01130313182F800B002F91012D
:20006000121307130813082F92010D130C130E130F131013052F850B04130613042F82010D
:20008000022FBB01022FC300920FC7234F308723673047236B300721900190017930071223
:2000A00087115B308A0B032F630054308A0F58300000000086305C308723613047217C30BD
:2000C0007330623047217F306530000083306830472178306F3000000721900190010000FB
:2000E000072190019001000007219001900183300721900190010000072190019001000025
:200100000721900190019001002F9001D0188D30122F8D0B092F8C0B44318E300000DB30B9
:20012000920FC7239B308723B2304723B630072190019001C43007128711A6308A0B032F01
:200140006300A0308A0FA4300000CF30A7308723AC304721C730BE30AD304721CA30B03037
:200160000000CE30B3304721C330BA3000000721900190010000072190019001000007219D
:2001800090019001CE3007219001900100000721900190010000072190019001900190013F
:2001A0000000D018D830122F8D0B092F8C0B4431D9300000DB308103930B0012002F881122
:2001C000E23090018103920B00120012202F04088611EB300412072F890B002F8811F13061
:2001E0009001D018F830122F8D0B092F8C0B4431F9300000FB3089111431072F890B002F15
:200200008811033190010600870B0F2C8708880B093100000000002A11310000930F9101B1
:200220003031930F91013A317000002F881119319001800F2D2A18281829800B1F31203118
:2002400021310000002F881126319001D0182D31122F8D0B092F8C0B44312E310000FB30AF
:20026000D0183731122F8D0B092F8C0B4431383100004430D0184131122F8D0B092F8C0B32
:200280004431423100009030072F890B182F800B0F1307130813920FC723563187236E3168
:2002A0004723723107219001900180310712871162318A0B032F63005B318A0F5F31000013
:2002C00000008D31633187236831472183317A316931472186316C3100008A316F314721A9
:2002E0007F3176310000072190019001000007219001900100000721900190018A310721E6
:2003000090019001000007219001900100000721900190019001002F90018D1195318C11D5
:20032000933192318F340E157334963100005334920FC723A3318723BB314723BF310721E4
:2003400090019001CD3107128711AF318A0B032F6300A8318A0FAC3100000000DA31B03187
:200360008723B5314721D031C731B6314721D331B9310000D731BC314721CC31C331000001
:2003800007219001900100000721900190010000072190019001D73107219001900100002D
:2003A00007219001900100000721900190019001002F9001D018E131122F8D0B092F8C0BB6
:2003C0005334E23100003434920FC723EF318723073247230B320721900190011932071238
:2003E0008711FB318A0B032F6300F4318A0FF831000000002632FC318723013247211C3210
:200400001332023247211F320532000023320832472118320F3200000721900190010000A7
:2004200007219001900100000721900190012332072190019001000007219001900100003F
:200440000721900190019001002F9001D018CE270F130C2F8D0B00005334920FC7233832B3
:20046000872350324723543207219001900162320712871144328A0B032F63003D328A0F29
:200480004132000000006F32453287234A32472165325C324B32472168324E3200006C3281
:2004A000513247216132583200000721900190010000072190019001000007219001900156
:2004C0006C32072190019001000007219001900100000721900190019001002F9001D01A65
:2004E00076324F227000802F940BAE344F2678328F34920FC723843287239C324723A0326C
:20050000072190019001AE320712871190328A0B032F630089328A0F8D3200000000BB3214
:200520009132872396324721B132A83297324721B4329A320000B8329D324721AD32A432A8
:20054000000007219001900100000721900190010000072190019001B83207219001900189
:20056000000007219001900100000721900190019001002F90018E0F6E00900B4F220F264A
:200580000E133434920FC723CD328723E4324723E832072190019001F63207128711D832D7
:2005A0008A0B032F6300D2328A0FD63200000133D9328723DE324721F932F032DF32472145
:2005C000FC32E23200000033E5324721F532EC32000007219001900100000721900190014E
:2005E0000000072190019001003307219001900100000721900190010000072190019001A0
:20060000900190010000D0180A33122F8D0B092F8C0B53340B3300003434920FC7231833E8
:2006200087232F334723333307219001900141330712871123338A0B032F63001D338A0F06
:20064000213300004C33243387232933472144333B332A33472147332D3300004B3330339D
:200660004721403337330000072190019001000007219001900100000721900190014B33D9
:20068000072190019001000007219001900100000721900190019001900100008D11563333
:2006A0008C11543353338F340E157334573300005334920FC723643387237B3347237F335C
:2006C0000721900190018D33071287116F338A0B032F630069338A0F6D3300009833703350
:2006E000872375334721903387337633472193337933000097337C3347218C3383330000EA
:200700000721900190010000072190019001000007219001900197330721900190010000E7
:200720000721900190010000072190019001900190010000D018CE270F130C2F8D0B000031
:200740005334920FC723AC338723C3334723C733072190019001D53307128711B7338A0B22
:20076000032F6300B1338A0FB5330000E033B8338723BD334721D833CF33BE334721DB330B
:20078000C1330000DF33C4334721D433CB330000072190019001000007219001900100005B
:2007A000072190019001DF330721900190010000072190019001000007219001900190016E
:2007C00090010000D01AE9334F227000802F940BAE344F26EB338F34920FC723F7338723BC
:2007E0000E344723123407219001900120340712871102348A0B032F6300FC338A0F00345C
:2008000000002B34033487230834472123341A340934472126340C3400002A340F34472107
:200820001F3416340000072190019001000007219001900100000721900190012A340721B7
:2008400090019001000007219001900100000721900190019001900100008E0F6E00900B1A
:200860004F220F260E1334348103930B0012002F88113B3490018103920B00128103870B04
:200880000F2C8708910B00120000002F881149349001D0185034122F8D0B092F8C0B583668
:2008A0005134000000368103930B0012002F88115A3490018103920B00128103870B0F2CDE
:2008C0008708910B00120000002F8811683490018D1170348C116E346D3402370E15B3367F
:2008E0007134000058368103930B0012002F88117A3490018103920B00128103870B0F2C06
:200900008708910B00120000002F881188349001D018CE270F130C2F8D0B000058368103A1
:20092000930B0012002F8811963490018103920B00128103870B0F2C8708910B0012000023
:20094000002F8811A4349001D01AAB344F227000802F940B5A374F26AD3402378103930B2C
:200960000012002F8811B53490018103920B00128103870B0F2C8708910B00120000002F33
:140980008811C33490018E0F6E00900B4F220F260E1300369F
:200A0000102D102D102D102D102D102D102D102D102D102D102D102D102D202D202D202DD6
:200A2000202D302D302D402D402D502D502D602D702D802D802D902DA02DB02DC02DE02DF6
:200A4000F02D012D112D312D412D612D812D912DB12DD12DF12D122D322D522D822DA22DB2
:200A6000C22DF22D132D432D632D932DC32DF32D242D542D842DB42DE42D152D452D752D8D
:200A8000B52DE52D162D562D862DC62DF62D372D672DA72DD72D182D582D882DC82DF82D6A
:200AA000392D792DA92DE92D1A2D5A2D8A2DCA2DFA2D3B2D6B2DAB2DDB2D0C2D3C2D6C2D80
:200AC000AC2DDC2D0D2D3D2D5D2D8D2DBD2DDD2D0E2D2E2D5E2D7E2D9E2DBE2DDE2DFE2DA0
:200AE0001F2D3F2D4F2D6F2D7F2D9F2DAF2DBF2DCF2DDF2DDF2DEF2DFF2DFF2DFF2DFF2D06
:200B0000FF2DFF2DFF2DFF2DFF2DEF2DDF2DDF2DCF2DBF2DAF2D9F2D7F2D6F2D4F2D3F2D05
:200B20001F2DFE2DDE2DBE2D9E2D7E2D5E2D2E2D0E2DDD2DBD2D8D2D5D2D3D2D0D2DDC2DCC
:200B4000AC2D6C2D3C2D0C2DDB2DAB2D6B2D3B2DFA2DCA2D8A2D5A2D1A2DE92DA92D792D6C
:200B6000392DF82DC82D882D582D182DD72DA72D672D372DF62DC62D862D562D162DE52D05
:200B8000B52D752D452D152DE42DB42D842D542D242DF32DC32D932D632D432D132DF22D79
:200BA000C22DA22D822D522D322D122DF12DD12DB12D912D812D612D412D312D112D012D7F
:200BC000F02DE02DC02DB02DA02D902D802D802D702D602D502D502D402D402D302D302D85
:200BE000202D202D202D202D102D102D102D102D102D102D102D102D102D102D102D102DE5
:200C000089111A36072F890B002F8811083690010000910F880B800F2D2A18281829800B64
:200C2000002F111717360000930F91014436930F91014E360000002F88111F3690010F20CD
:200C40002E3689112A360912172F94112836820B0000363609122C362D3636360F13900FCC
:200C60008203820F2C2A18281529820B002F88113A369001D0184136122F8D0B092F8C0B2D
:200C80005836423600000036D0184B36122F8D0B092F8C0B4B314C3600009831D0185536CD
:200CA000122F8D0B092F8C0B0D3356360000C23289117236072F890B002F881160369001D1
:200CC0000000910F880B800F2D2A18281829800B002F11176F360000930F91019D36930F4A
:200CE0009101A8360000002F8811773690010F208636891182360912172F94118036820BF8
:200D000000008E360912843685368E360F13900F8203820F2C2A18281529820B002F8811BB
:200D2000923690018D119A368C119836973602370E15B3369B36000058368D11A5368C11FA
:200D4000A336A2362D320E15E431A63600004B318D11B0368C11AE36AD36A1330E15593388
:200D6000B13600000D338911CD36072F890B002F8811BB3690010000910F880B800F2D2A82
:200D800018281829800B002F1117CA360000930F9101F436930F9101FB360000002F881165
:200DA000D23690010F20E1368911DD360912172F9411DB36820B0000E9360912DF36E0369E
:200DC000E9360F13900F8203820F2C2A18281529820B002F8811ED369001D018CE270F1341
:200DE0000C2F8D0B00005836D018CE270F130C2F8D0B00004B31D018CE270F130C2F8D0B72
:200E000000000D3389111C37072F890B002F88110A3790010000910F880B800F2D2A1828E8
:200E20001829800B002F111719370000930F91014637930F910150370000002F88112137B3
:200E400090010F20303789112C370912172F94112A37820B0000383709122E372F373837B6
:200E60000F13900F8203820F2C2A18281529820B002F88113C379001D01A43374F22700029
:200E8000802F940B5A374F2645370237D01A4D374F227000802F940B79324F264F372D32A7
:200EA000D01A57374F227000802F940BEC334F265937A13389117437072F890B002F8811BC
:200EC000623790010000910F880B800F2D2A18281829800B002F111771370000930F910190
:200EE0009B37930F9101A2370000002F8811793790010F208837891184370912172F9411C1
:200F00008237820B0000903709128637873790370F13900F8203820F2C2A18281529820B2F
:200F2000002F8811943790018E0F6E00900B4F220F260E1300368E0F6E00900B4F220F269E
:120F40000E1398318E0F6E00900B4F220F260E13C23254
:00000001FF
