:2000000014178300521443140114001409143D140014881413140B14001791009909810914
:2000200089098A098C098D098E0985090817920083090117C2050217DB059A099C091A17BD
:2000400082000117D805CC05DD0589098A098D0902179B0002176300C20717000717700D10
:20006000C2056917C80551181117C7051D174F18840A700CF403101750180B17C7051D17C2
:200080004F181817700D01174F181303C407C605011750181417C7081210C808091100009C
:2000A000C2050017CD0855189000DD071700C017CB05801778188117CB050117781881171F
:2000C000CB05801778181117CB05011778181117CB05101778185017CB0540177818501755
:2000E000CB0510177818C017CB05FD17D8054017C9052B173000DD050017CD088018900054
:200100002C1820171A0404171804381713027B1889180017CD088D1890004A19DC08911866
:200120001A093D178718401795188618421795184417951846179518D807DD050600CC0557
:200140000700CD050012C907CA05CB079100A818C20717000717700DC2056917C805CD187E
:200160001117C7051D17CB18840A700CF4031017CC180B17C7051D17CB181817700D01179F
:20018000CB181303C407C6050117CC181417C7081210C80809110000C205CC071700001706
:2001A0003B19D21843191519D51800004419C907D918DA181119C907DD18DE180E19C9079E
:2001C000E118E218D418C907E518E618D118C907E918EA180519C907ED18EE180219C907D5
:2001E0000000F218FE18C907F518F6183F19C9070000FA183E19C907FD183D194019C907FF
:2002000000003C194119C9073B19000042190000C90790003D19C90790003C190F191019F4
:2002200045191219131900004619031713001619D8071700CA07D00F90002C18CA07F00F04
:2002400090002C18CA07100F90002C18CA07F00F90002C18CA07100F90002C18CA07900F2E
:2002600090002C18CA07D00F90002C18CA07900F90002C1890009000900090009000900082
:200280009000900090009000900090009000CA0790002C180617CF050117D805CC051017EB
:2002A000C00589098A098D09C20717000717700DC2056917C80579191117C7051D177719E5
:2002C000840A700CF403101778190B17C7051D1777191817700D011777191303C407C605B3
:2002E000011778191417C7081210C80809110000C205CC0717000017E7197E19EF19C1190E
:2003000081190000F019C90785198619BD19C90789198A19BA19C9078D198E198019C907E9
:20032000911992197D19C90795199619B119C90799199A19AE19C90700009E19AA19C907C5
:20034000A119A219EB19C9070000A619EA19C907A919E919EC19C9070000E819ED19C90752
:20036000E7190000EE190000C9079000E919C9079000E819BB19BC19F119BE19BF19000051
:20038000F21903171300C219D8071700CA07D00F9000001BCA07F00F9000001BCA07100F8E
:2003A0009000001BCA07F00F9000001BCA07100F9000001BCA07900F9000001BCA07D00FB1
:2003C0009000001BCA07900F9000001B9000900090009000900090009000900090009000B7
:0C03E000900090009000CA079000001BE5
:20040000050005000500050005000500050005000500050005000500050009000900090080
:2004200009000D000D00110011001500150019001D0021002100250029002D0031003900F0
:200440003D00010105010D0111011901210125012D0135013D0105020D02150221022902B8
:2004600031023D02050311031903250331033D030904150421042D043904050511051D053B
:200480002D05390505061506210631063D060D0719072907350705081508210831083D08B4
:2004A0000D091D0929093909050A150A210A310A3D0A0D0B190B290B350B010C0D0C190CB6
:2004C000290C350C010D0D0D150D210D2D0D350D010E090E150E1D0E250E2D0E350E3D0E42
:2004E000050F0D0F110F190F1D0F250F290F2D0F310F350F350F390F3D0F3D0F3D0F3D0F70
:200500003D0F3D0F3D0F3D0F3D0F390F350F350F310F2D0F290F250F1D0F190F110F0D0F17
:20052000050F3D0E350E2D0E250E1D0E150E090E010E350D2D0D210D150D0D0D010D350C02
:20054000290C190C0D0C010C350B290B190B0D0B3D0A310A210A150A050A390929091D09F6
:200560000D093D0831082108150805083507290719070D073D0631062106150605063905EF
:200580002D051D051105050539042D042104150409043D03310325031903110305033D021B
:2005A00031022902210215020D0205023D0135012D0125012101190111010D010501010161
:2005C0003D00390031002D0029002500210021001D00190015001500110011000D000D001B
:2005E00009000900090009000500050005000500050005000500050005000500050005009B
:20060000C20717000717700DC2056917C805251B1117C7051D17231B840A700CF40310177D
:20062000241B0B17C7051D17231B1817700D0117231B1303C407C6050117241B1417C7081C
:200640001210C80809110000C2050017CD08291B9000D80717008017C905D1074B1B011756
:20066000C905D2074B1B8017C905D3074B1B0117C905D4074B1B1017C905D5074B1B401713
:20068000C905D6074B1B1017C905D7074B1B4017C905D0074B1BCC05F0148C05CE0500175E
:2006A000CD08531B9000541BC20717000717700DC2056917C805791B1117C7051D17771B1B
:2006C000840A700CF4031017781B0B17C7051D17771B1817700D0117771B1303C407C605A9
:2006E0000117781B1417C7081210C80809110000C2050017CD087D1B9000CF088E1B8E0B55
:20070000C907CA051017C508861BC005E503C50300000017CD088D1B90009F1BC3089B1BD1
:200720008509C607E0000009600330000017CD089A1B9000541B83099D1B0000961BC20784
:2007400017000717700DC2056917C805C41B1117C7051D17C21B840A700CF4031017C31BE9
:200760000B17C7051D17C21B1817700D0117C21B1303C407C6050117C31B1417C70812101B
:20078000C80809110000C2050017CD08C81B90000617CF05CE071E00CD05CC0ACC0A0C09D2
:2007A000041718061F141700D805C01791005419D805C01791005419D805811791005419DF
:2007C000D805811791005419D805111791005419D805111791005419D8055017910054195E
:0807E000D805501791005419CF
:00000001FF
